:100000000C942A000C9447000C9447000C94470071
:100010000C9447000C9447000C9447000C94470044
:100020000C9447000C9447000C9447000C94470034
:100030000C9447000C9447000C9447000C94470024
:100040000C9447000C9447000C9447000C94470014
:100050000C94470011241FBECFE5D8E0DEBFCDBF12
:1000600010E0A0E6B0E0E6EBFDE202C005900D92E4
:10007000AC39B107D9F710E0ACE9B0E001C01D928E
:10008000AD3AB107E1F70E9471140C94D9160C94A3
:100090000000EF92FF920F931F937B018C0120E0F1
:1000A00030E040E05FE40E94490388238CF0C801FF
:1000B000B70120E030E040E05FE40E94C1010E940F
:1000C000A9039B01AC01205030404040504806C07D
:1000D000C801B7010E94A9039B01AC01B901CA0183
:1000E0001F910F91FF90EF900895A0E0B0E0EBE733
:1000F000F0E00C945E16DC012B01FA019C91923029
:1001000008F439C1EB018881823008F433C194309E
:1001100069F4843009F02FC111969C91119789815F
:10012000981709F428C1AFE7B0E025C1843009F47D
:1001300021C18230A9F4923009F01DC19A01AD01AC
:1001400088E0EA010990AE01E90109929E0181501F
:10015000C1F7E201898111969C918923818308C1AD
:10016000923009F407C112962D903C901397EB0141
:100170008A819B811496AD90BD90CD90DC901797AD
:10018000EC80FD800E811F819101281B390BB90184
:1001900037FF04C066277727621B730B6032710537
:1001A0000CF061C0121613066CF537014801062EDB
:1001B00004C096948794779467940A94D2F721E0C8
:1001C00030E040E050E004C0220F331F441F551FB1
:1001D0006A95D2F721503040404050402E213F21B7
:1001E00040235123211531054105510521F021E01E
:1001F00030E040E050E079018A01E628F72808293C
:1002000019293CC0232BD1F1260E371E350146019A
:10021000062E04C096948794779467940A94D2F734
:1002200021E030E040E050E004C0220F331F441FC3
:10023000551F6A95D2F721503040404050402A2146
:100240003B214C215D21211531054105510521F04E
:1002500021E030E040E050E059016A01A628B728CB
:10026000C828D9280BC0821593052CF01C01AA249C
:10027000BB24650103C0EE24FF24870111969C91E5
:10028000D20111968C91981709F445C0992339F041
:10029000A80197012A193B094C095D0906C0A6016E
:1002A00095012E193F09400B510B57FD08C01182D3
:1002B0003382228224833583468357831DC081E0A5
:1002C00081833382228288279927DC01821B930B4A
:1002D000A40BB50B84839583A683B7830DC0220F2F
:1002E000331F441F551F24833583468357838281E0
:1002F000938101979383828324813581468157813D
:10030000DA01C9010197A109B1098F5F9F4FAF4F72
:10031000BF4328F30BC0918333822282EA0CFB1C7B
:100320000C1D1D1DE482F5820683178383E0808304
:10033000248135814681578157FF1AC0C901AA27F8
:1003400097FDA095BA2F81709070A070B0705695EF
:10035000479537952795822B932BA42BB52B848318
:100360009583A683B7838281938101969383828349
:10037000DF0101C0D201CD01CDB7DEB7E2E10C94BF
:100380007A16A0E2B0E0E7ECF1E00C946A1669831B
:100390007A838B839C832D833E834F835887E9E048
:1003A000EE2EF12CEC0EFD1ECE010196B7010E943F
:1003B000D2048E010F5E1F4FCE010596B8010E9438
:1003C000D2048A8991E089278A8BC701B801AE01DE
:1003D000475E5F4F0E9475000E94FD03A096E6E015
:1003E0000C948616A0E2B0E0E8EFF1E00C946A16F7
:1003F00069837A838B839C832D833E834F835887C5
:10040000F9E0EF2EF12CEC0EFD1ECE010196B701A6
:100410000E94D2048E010F5E1F4FCE010596B801D7
:100420000E94D204C701B801AE01475E5F4F0E942F
:1004300075000E94FD03A096E6E00C948616A0E2EB
:10044000B0E0E5E2F2E00C945E1669837A838B8378
:100450009C832D833E834F835887CE010196BE0136
:10046000675F7F4F0E94D204CE010596BE016F5E8A
:100470007F4F0E94D2049985923088F0898982301A
:10048000C8F0943019F4823051F404C0843029F457
:10049000923081F48FE790E0C6C0923049F420E0BA
:1004A0009A858A89981321E02A87CE010996BBC0D4
:1004B000823049F420E09A858A89981321E02A8BBA
:1004C000CE014196B0C02D843E844F8458886D88FB
:1004D0007E888F88988CEE24FF248701AA24BB2471
:1004E000650140E050E060E070E0E0E0F0E0C10174
:1004F00081709070892BE9F0E60CF71C081D191D1E
:100500009A01AB012A0D3B1D4C1D5D1D80E090E062
:10051000A0E0B0E0E614F7040805190520F481E036
:1005200090E0A0E0B0E0BA01A901480F591F6A1F8E
:100530007B1FAA0CBB1CCC1CDD1C97FE08C081E0F5
:1005400090E0A0E0B0E0A82AB92ACA2ADB2A3196B6
:10055000E032F10549F0660C771C881C991C569412
:10056000479437942794C3CFFA85EA892B893C892D
:100570008B859C85280F391F2E5F3F4F17C0CA01FE
:1005800081709070892B61F016950795F794E79428
:1005900080E090E0A0E0B0E8E82AF92A0A2B1B2BC3
:1005A00076956795579547952F5F3F4F77FDE7CF36
:1005B0000CC0440F551F661F771F17FD4160EE0CDE
:1005C000FF1C001F111F21503040403090E05907A0
:1005D00090E0690790E4790760F32B8F3C8FDB0193
:1005E000CA018F779070A070B07080349105A1051A
:1005F000B10561F447FD0AC0E114F10401051105DC
:1006000029F0405C5F4F6F4F7F4F40781A8EFE1786
:1006100011F081E08A8F4D8F5E8F6F8F78A383E01A
:10062000898FCE0149960E94FD03A096E2E10C94C9
:100630007A16A8E1B0E0EFE1F3E00C946A16698362
:100640007A838B839C832D833E834F83588789E0F5
:10065000E82EF12CEC0EFD1ECE010196B7010E9492
:10066000D2048E010F5E1F4FCE010596B8010E9485
:10067000D2048985823040F08989823028F0C70110
:10068000B8010E944A0501C08FEF6896E6E00C941D
:100690008616A8E1B0E0EFE4F3E00C946A166983F3
:1006A0007A838B839C832D833E834F83588789E095
:1006B000E82EF12CEC0EFD1ECE010196B7010E9432
:1006C000D2048E010F5E1F4FCE010596B8010E9425
:1006D000D2048985823040F08989823028F0C701B0
:1006E000B8010E944A0501C08FEF6896E6E00C94BD
:1006F0008616A8E1B0E0EFE7F3E00C946A16698390
:100700007A838B839C832D833E834F83588789E034
:10071000E82EF12CEC0EFD1ECE010196B7010E94D1
:10072000D2048E010F5E1F4FCE010596B8010E94C4
:10073000D2048985823040F08989823028F0C7014F
:10074000B8010E944A0501C081E06896E6E00C9479
:100750008616ACE0B0E0EFEAF3E00C946E16698325
:100760007A838B839C83CE010196BE016B5F7F4FA2
:100770000E94D2048D81823061F1823050F1843048
:1007800021F48E81882351F12EC02F81388537FDC9
:1007900020C06E812F3131051CF06623F9F023C093
:1007A0008EE190E0821B930B29853A854B855C8511
:1007B00004C056954795379527958A95D2F76623B5
:1007C000B1F050954095309521953F4F4F4F5F4F79
:1007D0000EC020E030E040E050E009C02FEF3FEFD6
:1007E0004FEF5FE704C020E030E040E050E8B9019F
:1007F000CA012C96E2E00C948A16DF92EF92FF92E7
:100800000F931F93FC01E480F58006811781D1804E
:100810008081823048F480E090E0A0E1B0E0E82AF6
:10082000F92A0A2B1B2BA5C0843009F49FC0823003
:1008300021F4EE24FF24870105C0E114F104010531
:10084000110519F4E0E0F0E096C0628173819FEF3A
:10085000623879070CF05BC022E83FEF261B370BAC
:100860002A3131052CF020E030E040E050E02AC091
:10087000B801A701022E04C0769567955795479554
:100880000A94D2F781E090E0A0E0B0E004C0880FC5
:10089000991FAA1FBB1F2A95D2F70197A109B10979
:1008A0008E219F21A023B1230097A105B10521F03E
:1008B00081E090E0A0E0B0E09A01AB01282B392B59
:1008C0004A2B5B2BDA01C9018F779070A070B07052
:1008D00080349105A105B10539F427FF09C0205CDA
:1008E0003F4F4F4F5F4F04C0215C3F4F4F4F5F4F13
:1008F000E0E0F0E02030A0E03A07A0E04A07A0E402
:100900005A0710F0E1E0F0E079018A0127C0603871
:10091000710564F5FB01E158FF4FD801C7018F77DE
:100920009070A070B07080349105A105B10539F4C4
:10093000E7FE0DC080E490E0A0E0B0E004C08FE3EB
:1009400090E0A0E0B0E0E80EF91E0A1F1B1F17FFA1
:1009500005C016950795F794E794319687E01695AC
:100960000795F794E7948A95D1F705C0EE24FF2404
:100970008701EFEFF0E06E2F679566276795902F60
:100980009F77D794DD24D7948E2F8695492F462BB9
:10099000582F5D29B701CA011F910F91FF90EF9069
:1009A000DF900895FC01DB01408151812281622F9B
:1009B0006F7770E0221F2227221F9381892F880FD3
:1009C000822B282F30E0991F9927991F11969C930D
:1009D000119721153105A9F54115510561057105DD
:1009E00011F482E037C082E89FEF13969C938E93B8
:1009F00012979A01AB0167E0220F331F441F551F66
:100A00006A95D1F783E08C930DC0220F331F441FEA
:100A1000551F12968D919C911397019713969C9355
:100A20008E931297203080E0380780E0480780E4FA
:100A3000580758F314962D933D934D935C93179755
:100A400008952F3F310579F4411551056105710570
:100A500019F484E08C93089564FF03C081E08C93C3
:100A600012C01C9210C02F57304013963C932E9307
:100A7000129783E08C9387E0440F551F661F771F02
:100A80008A95D1F7706414964D935D936D937C9322
:100A9000179708951F93DC01FB019C91923008F495
:100AA00047C08081823008F443C0943051F41196DD
:100AB0001C91843099F58181682F70E0611B710968
:100AC0003FC0843021F0923031F48230B9F181811D
:100AD000882389F12DC011961C9111978230F1F075
:100AE00081811817D9F412962D913C911397828128
:100AF00093818217930794F028173907BCF0149656
:100B00008D919D910D90BC91A02D248135814681C0
:100B10005781281739074A075B0718F4112341F05A
:100B20000AC082179307A407B50740F4112319F0F0
:100B300061E070E005C06FEF7FEF02C060E070E041
:100B4000CB011F910895DF93CF93CDB7DEB7A6E217
:100B5000B0E0E6E2F0E0808180688C93A6E2B0E04D
:100B6000E6E2F0E0808184608C93A6E2B0E0E6E209
:100B7000F0E0808182608C93A6E2B0E0E6E2F0E0F3
:100B8000808181608C93A7E2B0E0E7E2F0E08081B1
:100B90008F778C93A7E2B0E0E7E2F0E08081806499
:100BA0008C93A7E2B0E0E7E2F0E080818F7D8C9348
:100BB000CF91DF910895DF93CF930F92CDB7DEB73A
:100BC0008983898187708983A7E2B0E0E7E2F0E05A
:100BD0008081807E8C93A7E2B0E0E7E2F0E0908134
:100BE0008981892B8C93A6E2B0E0E6E2F0E0808177
:100BF00080648C93E6E2F0E08081882F90E0807141
:100C000090700097B9F3A6E2B0E0E6E2F0E08081F0
:100C100080618C93E4E2F0E080819181CC01A0E0DE
:100C2000B0E028E833E140E050E0BC01CD010E9493
:100C30000916DC01CB012FEF33E040E050E0BC01AE
:100C4000CD010E943C16DA01C9019093A400809363
:100C5000A3008091A3009091A4000F90CF91DF9109
:100C60000895DF93CF9300D000D00F92CDB7DEB7B9
:100C700089836A834B838981282F30E03D832C83CD
:100C80006C817D8161307105D1F18C819D818230D3
:100C9000910534F42C813D812115310571F094C00A
:100CA0006C817D816230710509F44BC08C819D811E
:100CB0008330910509F467C087C0AAE3B0E0EAE396
:100CC000F0E08081482F8A81282F30E081E090E099
:100CD00002C0880F991F2A95E2F7809548238B81DF
:100CE000282F30E08A81882F90E0B90102C0660F7A
:100CF000771F8A95E2F7CB01842B8C9365C0A7E31D
:100D0000B0E0E7E3F0E08081482F8A81282F30E0CF
:100D100081E090E002C0880F991F2A95E2F7809544
:100D200048238B81282F30E08A81882F90E0B901F9
:100D300002C0660F771F8A95E2F7CB01842B8C9354
:100D400043C0A4E3B0E0E4E3F0E08081482F8A816F
:100D5000282F30E081E090E002C0880F991F2A958B
:100D6000E2F7809548238B81282F30E08A81882FF5
:100D700090E0B90102C0660F771F8A95E2F7CB01B8
:100D8000842B8C9321C0A1E3B0E0E1E3F0E080810B
:100D9000482F8A81282F30E081E090E002C0880F40
:100DA000991F2A95E2F7809548238B81282F30E000
:100DB0008A81882F90E0B90102C0660F771F8A955B
:100DC000E2F7CB01842B8C930F900F900F900F9034
:100DD0000F90CF91DF910895DF93CF9300D000D093
:100DE0000F92CDB7DEB789836A834B838981282F21
:100DF00030E03D832C836C817D8161307105D1F1C0
:100E00008C819D818230910534F42C813D812115A6
:100E1000310571F094C06C817D816230710509F4F7
:100E20004BC08C819D818330910509F467C087C0D8
:100E3000ABE3B0E0EBE3F0E08081482F8A81282F1C
:100E400030E081E090E002C0880F991F2A95E2F718
:100E5000809548238B81282F30E08A81882F90E06D
:100E6000B90102C0660F771F8A95E2F7CB01842B88
:100E70008C9365C0A8E3B0E0E8E3F0E08081482F00
:100E80008A81282F30E081E090E002C0880F991F0E
:100E90002A95E2F7809548238B81282F30E08A81BC
:100EA000882F90E0B90102C0660F771F8A95E2F79C
:100EB000CB01842B8C9343C0A5E3B0E0E5E3F0E0E5
:100EC0008081482F8A81282F30E081E090E002C0A5
:100ED000880F991F2A95E2F7809548238B81282F48
:100EE00030E08A81882F90E0B90102C0660F771F39
:100EF0008A95E2F7CB01842B8C9321C0A2E3B0E06A
:100F0000E2E3F0E08081482F8A81282F30E081E001
:100F100090E002C0880F991F2A95E2F78095482338
:100F20008B81282F30E08A81882F90E0B90102C0A0
:100F3000660F771F8A95E2F7CB01842B8C930F9075
:100F40000F900F900F900F90CF91DF910895DF9346
:100F5000CF9300D000D0CDB7DEB789836A83898173
:100F6000282F30E03C832B838B819C81813091053D
:100F700049F12B813C81223031052CF48B819C81FD
:100F8000009761F05AC02B813C812230310571F10C
:100F90008B819C8183309105E9F14FC0ABE3B0E0D8
:100FA000EBE3F0E08081482F8A81282F30E081E058
:100FB00090E0022E02C0880F991F0A94E2F784275E
:100FC0008C933BC0A8E3B0E0E8E3F0E08081482FD9
:100FD0008A81282F30E081E090E0022E02C0880F45
:100FE000991F0A94E2F784278C9327C0A5E3B0E009
:100FF000E5E3F0E08081482F8A81282F30E081E00E
:1010000090E0022E02C0880F991F0A94E2F784270D
:101010008C9313C0A2E3B0E0E2E3F0E08081482FBC
:101020008A81282F30E081E090E0022E02C0880FF4
:10103000991F0A94E2F784278C930F900F900F90DA
:101040000F90CF91DF910895DF93CF93CDB7DEB7A7
:1010500027970FB6F894DEBF0FBECDBF8A836B8390
:101060005D834C8319828A81282F30E03F832E8351
:101070004E815F814130510541F18E819F818230E7
:10108000910534F42E813F812115310561F052C064
:101090004E815F814230510551F18E819F818330B5
:1010A0009105B9F147C0E9E3F0E08081282F30E0F5
:1010B0008B81882F90E0A90102C0559547958A95AC
:1010C000E2F7CA018170898335C0E6E3F0E08081F0
:1010D000282F30E08B81882F90E0A90102C0559520
:1010E00047958A95E2F7CA018170898323C0E3E3BB
:1010F000F0E08081282F30E08B81882F90E0A901DB
:1011000002C0559547958A95E2F7CA018170898397
:1011100011C0E0E3F0E08081282F30E08B81882F40
:1011200090E0A90102C0559547958A95E2F7CA015A
:1011300081708983EC81FD818981808327960FB638
:10114000F894DEBF0FBECDBFCF91DF910895DF933E
:10115000CF9300D000D0CDB7DEB789836A83898171
:10116000282F30E03C832B838B819C81813091053B
:10117000D1F02B813C81223031052CF48B819C8174
:10118000009761F01EC02B813C812230310581F037
:101190008B819C818330910581F013C0EAE3F0E0FC
:1011A0008A8180830EC0E7E3F0E08A81808309C0F2
:1011B000E4E3F0E08A81808304C0E1E3F0E08A8127
:1011C00080830F900F900F900F90CF91DF91089533
:1011D000DF93CF9300D000D0CDB7DEB789836A8389
:1011E0008981282F30E03C832B838B819C81813047
:1011F0009105D1F02B813C81223031052CF48B817B
:101200009C81009761F01EC02B813C81223031050A
:1012100081F08B819C818330910581F013C0EBE3D9
:10122000F0E08A8180830EC0E8E3F0E08A81808369
:1012300009C0E5E3F0E08A81808304C0E2E3F0E0E6
:101240008A8180830F900F900F900F90CF91DF9144
:101250000895DF93CF9300D000D0CDB7DEB7898358
:101260006A838981282F30E03C832B838B819C818A
:101270008130910501F12B813C81223031052CF424
:101280008B819C81009761F036C02B813C8122309C
:101290003105E1F08B819C818330910511F12BC0E8
:1012A000AAE3B0E0EAE3F0E08081982F907F8A81A2
:1012B000892B8C9320C0A7E3B0E0E7E3F0E08081C6
:1012C000982F907F8A81892B8C9315C0A4E3B0E07E
:1012D000E4E3F0E08081982F907F8A81892B8C93C2
:1012E0000AC0A1E3B0E0E1E3F0E08081982F907FB5
:1012F0008A81892B8C930F900F900F900F90CF9134
:10130000DF910895DF93CF9300D000D0CDB7DEB743
:1013100089836A838981282F30E03C832B838B81EA
:101320009C818130910541F12B813C812230310536
:101330002CF48B819C81009761F056C02B813C81FD
:101340002230310561F18B819C8183309105D1F18F
:101350004BC0AAE3B0E0EAE3F0E08081282F2F70D1
:101360008A81882F90E082959295907F9827807F40
:101370009827822B8C9338C0A7E3B0E0E7E3F0E036
:101380008081282F2F708A81882F90E082959295F6
:10139000907F9827807F9827822B8C9325C0A4E389
:1013A000B0E0E4E3F0E08081282F2F708A81882F5D
:1013B00090E082959295907F9827807F9827822B46
:1013C0008C9312C0A1E3B0E0E1E3F0E08081282F2C
:1013D0002F708A81882F90E082959295907F982730
:1013E000807F9827822B8C930F900F900F900F90F7
:1013F000CF91DF910895DF93CF9300D000D0CDB788
:10140000DEB789836A838981282F30E03C832B8370
:101410008B819C818130910501F12B813C812230AF
:1014200031052CF48B819C81009761F036C02B81B3
:101430003C8122303105E1F08B819C818330910524
:1014400011F12BC0ABE3B0E0EBE3F0E08081982F2B
:10145000907F8A81892B8C9320C0A8E3B0E0E8E3D9
:10146000F0E08081982F907F8A81892B8C9315C022
:10147000A5E3B0E0E5E3F0E08081982F907F8A81DA
:10148000892B8C930AC0A2E3B0E0E2E3F0E0808114
:10149000982F907F8A81892B8C930F900F900F90BB
:1014A0000F90CF91DF910895DF93CF9300D000D0BC
:1014B000CDB7DEB789836A838981282F30E03C83EA
:1014C0002B838B819C818130910541F12B813C8163
:1014D000223031052CF48B819C81009761F056C03D
:1014E0002B813C812230310561F18B819C818330DD
:1014F0009105D1F14BC0ABE3B0E0EBE3F0E08081CC
:10150000282F2F708A81882F90E082959295907F66
:101510009827807F9827822B8C9338C0A8E3B0E06F
:10152000E8E3F0E08081282F2F708A81882F90E0F7
:1015300082959295907F9827807F9827822B8C9315
:1015400025C0A5E3B0E0E5E3F0E08081282F2F700F
:101550008A81882F90E082959295907F9827807F4E
:101560009827822B8C9312C0A2E3B0E0E2E3F0E074
:101570008081282F2F708A81882F90E08295929504
:10158000907F9827807F9827822B8C930F900F90C5
:101590000F900F90CF91DF910895DF93CF9300D0FC
:1015A000CDB7DEB71A8208C081E06A8141E00E94AF
:1015B00031068A818F5F8A838A818430A8F384E030
:1015C00089830DC081E0698140E00E94310681E09D
:1015D000698141E00E94EC0689818F5F898389815E
:1015E000883080F30F900F90CF91DF910895DF93B3
:1015F000CF93CDB7DEB764970FB6F894DEBF0FBEBA
:10160000CDBF9C8B8B8B8FEF8F87198AB6C081E003
:10161000698940E00E94EC0684E0888BA2C09E01AC
:101620002E5E3F4F81E06889A9010E9424088A89C3
:10163000882309F093C08889882F90E0AC0144503A
:1016400050408989282F30E0CA01880F991F880FE0
:10165000991F820F931FFC01E457FF4F80818F87F2
:1016600008C09E012E5E3F4F81E06889A9010E945B
:1016700024088A898823A9F380E090E0A0EAB1E4F5
:101680008B879C87AD87BE876B857C858D859E8586
:1016900020E030E04AEF54E40E941F02DC01CB015D
:1016A0008F839887A987BA876F81788589859A857E
:1016B00020E030E040E85FE30E94790388232CF4C7
:1016C00081E090E09E838D833FC06F81788589851E
:1016D0009A8520E03FEF4FE757E40E941903181660
:1016E0004CF56B857C858D859E8520E030E040E261
:1016F00051E40E941F02DC01CB01BC01CD010E941C
:101700004900DC01CB019E838D830FC088EC90E003
:101710009C838B838B819C810197F1F79C838B83C6
:101720008D819E8101979E838D838D819E810097FF
:1017300069F714C06F81788589859A850E94490070
:10174000DC01CB019E838D838D819E819A83898369
:1017500089819A810197F1F79A83898388898F5FBC
:10176000888B8889883008F45ACF81E0698941E004
:101770000E94EC0689898F5F898B8989843008F4FF
:1017800046CFEB89FC898F85808364960FB6F894E9
:10179000DEBF0FBECDBFCF91DF9108950F931F9392
:1017A000DF93CF93CDB7DEB7C455D0400FB6F894D2
:1017B000DEBF0FBECDBF80E06FE00E94820983E0F4
:1017C00060E041E00E94310683E061E041E00E9478
:1017D000310683E062E041E00E943106FE01EF5AEB
:1017E000FF4F80E090E0A0EFB1E480839183A2837B
:1017F000B3838E01035B1F4FFE01EF5AFF4F6081E1
:1018000071818281938120E030E04AEF54E40E94AC
:101810001F02DC01CB01F80180839183A283B38393
:10182000FE01E35BFF4F608171818281938120E043
:1018300030E040E85FE30E947903882344F4FE012E
:10184000E55BFF4F81E090E09183808364C0FE01FF
:10185000E35BFF4F608171818281938120E03FEFE4
:101860004FE757E40E94190318160CF043C0FE011D
:10187000EF5AFF4F608171818281938120E030E0D7
:1018800040E251E40E941F02DC01CB018E01055BA6
:101890001F4FBC01CD010E944900DC01CB01F801C2
:1018A000918380831FC0FE01E75BFF4F88EC90E0CF
:1018B00091838083FE01E75BFF4F808191810197D7
:1018C000F1F7FE01E75BFF4F91838083DE01A55BAB
:1018D000BF4FFE01E55BFF4F80819181019711961B
:1018E0009C938E93FE01E55BFF4F80819181009771
:1018F000D1F627C08E01055B1F4FFE01E35BFF4F52
:1019000060817181828193810E944900DC01CB0159
:10191000F80191838083DE01A95BBF4FFE01E55B87
:10192000FF4F808191818D939C93FE01E95BFF4F76
:10193000808191810197F1F7FE01E95BFF4F91836F
:10194000808382E00E943312FE01ED5BFF4F80E056
:1019500090E0A0E7B1E480839183A283B3838E01FA
:10196000015C1F4FFE01ED5BFF4F60817181828141
:10197000938120E030E04AEF54E40E941F02DC0132
:10198000CB01F80180839183A283B383FE01FF968C
:10199000608171818281938120E030E040E85FE3E3
:1019A0000E94790388232CF481E090E09EAF8DAFF4
:1019B00046C0FE01FF96608171818281938120E0A3
:1019C0003FEF4FE757E40E941903181664F5FE0134
:1019D000ED5BFF4F608171818281938120E030E077
:1019E00040E251E40E941F02DC01CB01BC01CD01A9
:1019F0000E944900DC01CB019EAF8DAF0FC088EC87
:101A000090E09CAF8BAF8BAD9CAD0197F1F79CAF95
:101A10008BAF8DAD9EAD01979EAF8DAF8DAD9EAD61
:101A2000009769F716C0FE01FF966081718182817F
:101A300093810E944900DC01CB019EAF8DAF8DAD3B
:101A40009EAD9AAF89AF89AD9AAD0197F1F79AAF84
:101A500089AF88E20E94331280E090E0A0E8BFE303
:101A60008DAB9EABAFABB8AF6DA97EA98FA998AD7A
:101A700020E030E04AEF54E40E941F02DC01CB0179
:101A800089AB9AABABABBCAB69A97AA98BA99CA972
:101A900020E030E040E85FE30E94790388232CF4E3
:101AA00081E090E098AB8FA73FC069A97AA98BA984
:101AB0009CA920E03FEF4FE757E40E941903181656
:101AC0004CF56DA97EA98FA998AD20E030E040E2E9
:101AD00051E40E941F02DC01CB01BC01CD010E9438
:101AE0004900DC01CB0198AB8FA70FC088EC90E0D8
:101AF0009EA78DA78DA59EA50197F1F79EA78DA7FF
:101B00008FA598A9019798AB8FA78FA598A9009743
:101B100069F714C069A97AA98BA99CA90E944900F8
:101B2000DC01CB0198AB8FA78FA598A99CA78BA7A9
:101B30008BA59CA50197F1F79CA78BA78CE00E9431
:101B4000331280E090E0A0E8BFE38FA398A7A9A795
:101B5000BAA76FA178A589A59AA520E030E04AEF41
:101B600054E40E941F02DC01CB018BA39CA3ADA314
:101B7000BEA36BA17CA18DA19EA120E030E040E836
:101B80005FE30E94790388232CF481E090E09AA31C
:101B900089A33FC06BA17CA18DA19EA120E03FEF56
:101BA0004FE757E40E94190318164CF56FA178A56A
:101BB00089A59AA520E030E040E251E40E941F028E
:101BC000DC01CB01BC01CD010E944900DC01CB014D
:101BD0009AA389A30FC088EC90E098A38F8F8F8D74
:101BE00098A10197F1F798A38F8F89A19AA10197E6
:101BF0009AA389A389A19AA1009769F714C06BA140
:101C00007CA18DA19EA10E944900DC01CB019AA379
:101C100089A389A19AA19E8F8D8F8D8D9E8D01970D
:101C2000F1F79E8F8D8F81E00E94331280E090E06B
:101C3000A0E7B1E4898F9A8FAB8FBC8F698D7A8DC5
:101C40008B8D9C8D20E030E04AEF54E40E941F020F
:101C5000DC01CB018D8B9E8BAF8BB88F6D897E891C
:101C60008F89988D20E030E040E85FE30E9479039F
:101C700088232CF481E090E09C8B8B8B3FC06D8996
:101C80007E898F89988D20E03FEF4FE757E40E94CF
:101C9000190318164CF5698D7A8D8B8D9C8D20E07B
:101CA00030E040E251E40E941F02DC01CB01BC01A4
:101CB000CD010E944900DC01CB019C8B8B8B0FC0B6
:101CC00088EC90E09A8B898B89899A890197F1F742
:101CD0009A8B898B8B899C8901979C8B8B8B8B89A9
:101CE0009C89009769F714C06D897E898F89988DCA
:101CF0000E944900DC01CB019C8B8B8B8B899C89DA
:101D0000988B8F878F8598890197F1F7988B8F87AC
:101D100086E00E94331280E090E0A0E0B0E48B8780
:101D20009C87AD87BE876B857C858D859E8520E0F1
:101D300030E04AEF54E40E941F02DC01CB018F83A4
:101D40009887A987BA876F81788589859A8520E0E9
:101D500030E040E85FE30E94790388232CF481E0BF
:101D600090E09E838D833FC06F81788589859A85B9
:101D700020E03FEF4FE757E40E94190318164CF597
:101D80006B857C858D859E8520E030E040E251E4C6
:101D90000E941F02DC01CB01BC01CD010E94490061
:101DA000DC01CB019E838D830FC088EC90E09C8387
:101DB0008B838B819C810197F1F79C838B838D8131
:101DC0009E8101979E838D838D819E81009769F707
:101DD00014C06F81788589859A850E944900DC014D
:101DE000CB019E838D838D819E819A838983898196
:101DF0009A810197F1F79A838983CC5ADF4F0FB606
:101E0000F894DEBF0FBECDBFCF91DF911F910F9130
:101E10000895DF93CF93CDB7DEB7E9970FB6F89467
:101E2000DEBF0FBECDBF89AF83E060E041E00E941E
:101E3000EC0683E061E040E00E94EC0683E062E0B3
:101E400041E00E94EC0680E090E0A0E8BFE38DABAB
:101E50009EABAFABB8AF6DA97EA98FA998AD20E0BE
:101E600030E04AEF54E40E941F02DC01CB0189AB51
:101E70009AABABABBCAB69A97AA98BA99CA920E0B2
:101E800030E040E85FE30E94790388232CF481E08E
:101E900090E098AB8FA73FC069A97AA98BA99CA9AC
:101EA00020E03FEF4FE757E40E94190318164CF566
:101EB0006DA97EA98FA998AD20E030E040E251E401
:101EC0000E941F02DC01CB01BC01CD010E94490030
:101ED000DC01CB0198AB8FA70FC088EC90E09EA7E8
:101EE0008DA78DA59EA50197F1F79EA78DA78FA51C
:101EF00098A9019798AB8FA78FA598A9009769F724
:101F000014C069A97AA98BA99CA90E944900DC0187
:101F1000CB0198AB8FA78FA598A99CA78BA78BA562
:101F20009CA50197F1F79CA78BA789AD982F929557
:101F30009F7080E0692F0E94540A83E062E040E0D5
:101F40000E94EC0680E090E0A0E8BFE38FA398A792
:101F5000A9A7BAA76FA178A589A59AA520E030E026
:101F60004AEF54E40E941F02DC01CB018BA39CA327
:101F7000ADA3BEA36BA17CA18DA19EA120E030E00A
:101F800040E85FE30E94790388232CF481E090E02D
:101F90009AA389A33FC06BA17CA18DA19EA120E043
:101FA0003FEF4FE757E40E94190318164CF56FA155
:101FB00078A589A59AA520E030E040E251E40E948E
:101FC0001F02DC01CB01BC01CD010E944900DC01F4
:101FD000CB019AA389A30FC088EC90E098A38F8FC0
:101FE0008F8D98A10197F1F798A38F8F89A19AA15E
:101FF00001979AA389A389A19AA1009769F714C0B0
:102000006BA17CA18DA19EA10E944900DC01CB01A6
:102010009AA389A389A19AA19E8F8D8F8D8D9E8D64
:102020000197F1F79E8F8D8F83E062E041E00E947F
:10203000EC0689AD982F9F7080E0692F0E94540AAA
:1020400083E062E040E00E94EC0680E090E0A0E8DF
:10205000BFE3898F9A8FAB8FBC8F698D7A8D8B8D03
:102060009C8D20E030E04AEF54E40E941F02DC0126
:10207000CB018D8B9E8BAF8BB88F6D897E898F89BD
:10208000988D20E030E040E85FE30E9479038823E8
:102090002CF481E090E09C8B8B8B3FC06D897E8916
:1020A0008F89988D20E03FEF4FE757E40E94190396
:1020B00018164CF5698D7A8D8B8D9C8D20E030E063
:1020C00040E251E40E941F02DC01CB01BC01CD01C2
:1020D0000E944900DC01CB019C8B8B8B0FC088ECEC
:1020E00090E09A8B898B89899A890197F1F79A8B6D
:1020F000898B8B899C8901979C8B8B8B8B899C8985
:10210000009769F714C06D897E898F89988D0E9428
:102110004900DC01CB019C8B8B8B8B899C89988B34
:102120008F878F8598890197F1F7988B8F8783E048
:1021300062E041E00E94EC0680E090E0A0E2B1E4C1
:102140008B879C87AD87BE876B857C858D859E85BB
:1021500020E030E04AEF54E40E941F02DC01CB0192
:102160008F839887A987BA876F81788589859A85B3
:1021700020E030E040E85FE30E94790388232CF4FC
:1021800081E090E09E838D833FC06F817885898553
:102190009A8520E03FEF4FE757E40E941903181695
:1021A0004CF56B857C858D859E8520E030E040E296
:1021B00051E40E941F02DC01CB01BC01CD010E9451
:1021C0004900DC01CB019E838D830FC088EC90E039
:1021D0009C838B838B819C810197F1F79C838B83FC
:1021E0008D819E8101979E838D838D819E81009735
:1021F00069F714C06F81788589859A850E944900A6
:10220000DC01CB019E838D838D819E819A8389839E
:1022100089819A810197F1F79A838983E9960FB6AC
:10222000F894DEBF0FBECDBFCF91DF910895DF934D
:10223000CF9300D00F92CDB7DEB79B838A831982EC
:102240000EC08981282F30E08A819B81FC01E20F3A
:10225000F31F80810E94090F89818F5F89838981A3
:10226000282F30E08A819B81FC01E20FF31F8081DF
:10227000882339F70F900F900F90CF91DF91089539
:10228000DF93CF93CDB7DEB781E00E943312CF91B9
:10229000DF910895DF93CF9300D000D00F92CDB798
:1022A000DEB78A836B838A81282F30E03D832C83BD
:1022B0008C819D81009731F02C813D812130310549
:1022C00021F006C08B81898303C08B81805C898368
:1022D000898180680E9433120F900F900F900F90A9
:1022E0000F90CF91DF910895DF93CF93CDB7DEB7F5
:1022F000A4970FB6F894DEBF0FBECDBF69A37AA333
:102300008BA39CA380E2FE013196DF01982F1D92E2
:102310009A95E9F789A19AA1ABA1BCA19E012F5F73
:102320003F4FBC01CD01A9012AE030E00E94951683
:10233000CE0101960E941711A4960FB6F894DEBF45
:102340000FBECDBFCF91DF910895DF93CF93CDB76F
:10235000DEB728970FB6F894DEBF0FBECDBF6D83F2
:102360007E838F83988781E090E0A0E0B0E089834E
:102370009A83AB83BC838D819E81AF81B8850097A2
:10238000A105B105B1F480E30E94090F63C0898102
:102390009A81AB81BC812AE030E040E050E0BC0192
:1023A000CD010E940916DC01CB0189839A83AB839E
:1023B000BC838D819E81AF81B88529813A814B8113
:1023C0005C81BC01CD010E943C16DA01C901009775
:1023D000A105B105E1F635C089819A81AB81BC8147
:1023E0002AE030E040E050E0BC01CD010E943C1604
:1023F000DA01C90189839A83AB83BC838D819E8175
:10240000AF81B88529813A814B815C81BC01CD01C6
:102410000E943C16DA01C901805D0E94090F8D817E
:102420009E81AF81B88529813A814B815C81BC0155
:10243000CD010E943C16DC01CB018D839E83AF83CE
:10244000B88789819A81AB81BC8181309105A105D2
:10245000B10511F628960FB6F894DEBF0FBECDBFBA
:10246000CF91DF910895DF93CF93CDB7DEB7E99792
:102470000FB6F894DEBF0FBECDBF89AF83E060E03A
:1024800040E00E94EC0683E061E040E00E94EC0640
:1024900083E062E041E00E94EC0680E090E0A0E88A
:1024A000BFE38DAB9EABAFABB8AF6DA97EA98FA9D3
:1024B00098AD20E030E04AEF54E40E941F02DC01B6
:1024C000CB0189AB9AABABABBCAB69A97AA98BA9A1
:1024D0009CA920E030E040E85FE30E947903882374
:1024E0002CF481E090E098AB8FA73FC069A97AA94E
:1024F0008BA99CA920E03FEF4FE757E40E94190306
:1025000018164CF56DA97EA98FA998AD20E030E092
:1025100040E251E40E941F02DC01CB01BC01CD016D
:102520000E944900DC01CB0198AB8FA70FC088EC5B
:1025300090E09EA78DA78DA59EA50197F1F79EA778
:102540008DA78FA598A9019798AB8FA78FA598A95C
:10255000009769F714C069A97AA98BA99CA90E9460
:102560004900DC01CB0198AB8FA78FA598A99CA748
:102570008BA78BA59CA50197F1F79CA78BA789AD8D
:10258000982F92959F7080E0692F0E94540A83E0F3
:1025900062E040E00E94EC0680E090E0A0E8BFE34B
:1025A0008FA398A7A9A7BAA76FA178A589A59AA56F
:1025B00020E030E04AEF54E40E941F02DC01CB012E
:1025C0008BA39CA3ADA3BEA36BA17CA18DA19EA157
:1025D00020E030E040E85FE30E94790388232CF498
:1025E00081E090E09AA389A33FC06BA17CA18DA15B
:1025F0009EA120E03FEF4FE757E40E941903181611
:102600004CF56FA178A589A59AA520E030E040E2BD
:1026100051E40E941F02DC01CB01BC01CD010E94EC
:102620004900DC01CB019AA389A30FC088EC90E09C
:1026300098A38F8F8F8D98A10197F1F798A38F8F13
:1026400089A19AA101979AA389A389A19AA1009728
:1026500069F714C06BA17CA18DA19EA10E944900C5
:10266000DC01CB019AA389A389A19AA19E8F8D8FAA
:102670008D8D9E8D0197F1F79E8F8D8F83E062E0A7
:1026800041E00E94EC0689AD982F9F7080E0692F91
:102690000E94540A83E062E040E00E94EC0680E081
:1026A00090E0A0E8BFE3898F9A8FAB8FBC8F698DD4
:1026B0007A8D8B8D9C8D20E030E04AEF54E40E94AF
:1026C0001F02DC01CB018D8B9E8BAF8BB88F6D8988
:1026D0007E898F89988D20E030E040E85FE30E949A
:1026E000790388232CF481E090E09C8B8B8B3FC096
:1026F0006D897E898F89988D20E03FEF4FE757E401
:102700000E94190318164CF5698D7A8D8B8D9C8D5E
:1027100020E030E040E251E40E941F02DC01CB01E6
:10272000BC01CD010E944900DC01CB019C8B8B8B4D
:102730000FC088EC90E09A8B898B89899A890197E0
:10274000F1F79A8B898B8B899C8901979C8B8B8B5A
:102750008B899C89009769F714C06D897E898F8960
:10276000988D0E944900DC01CB019C8B8B8B8B895F
:102770009C89988B8F878F8598890197F1F7988B23
:102780008F8783E062E041E00E94EC0680E090E009
:10279000A0E2B1E48B879C87AD87BE876B857C8583
:1027A0008D859E8520E030E04AEF54E40E941F02B0
:1027B000DC01CB018F839887A987BA876F817885E1
:1027C00089859A8520E030E040E85FE30E94790344
:1027D00088232CF481E090E09E838D833FC06F813D
:1027E000788589859A8520E03FEF4FE757E40E947E
:1027F000190318164CF56B857C858D859E8520E028
:1028000030E040E251E40E941F02DC01CB01BC0138
:10281000CD010E944900DC01CB019E838D830FC056
:1028200088EC90E09C838B838B819C810197F1F7EE
:102830009C838B838D819E8101979E838D838D8167
:102840009E81009769F714C06F81788589859A8584
:102850000E944900DC01CB019E838D838D819E8186
:102860009A83898389819A810197F1F79A83898371
:10287000E9960FB6F894DEBF0FBECDBFCF91DF91C2
:102880000895DF93CF93CDB7DEB780E00E94DB05DC
:1028900024E630E0B9010E942816CB019093A600EF
:1028A0008093A5008091A5009091A600CF91DF9123
:1028B0000895DF93CF93CDB7DEB781E00E94DB05AB
:1028C0002AE030E0B9010E942816CB019093A600BF
:1028D0008093A5008091A5009091A600CF91DF91F3
:1028E0000895DF93CF93CDB7DEB72F970FB6F89447
:1028F000DEBF0FBECDBF0E94CE0B0E94A3050E947B
:10290000CD0A80E060E040E00E94310680E061E0B6
:1029100040E00E94310683E065E041E00E9431061C
:1029200083E066E041E00E94310683E067E041E039
:102930000E9431060E94EE1581E060E00E944A117B
:1029400080E690E00E9417110E944114CC01A0E0A3
:10295000B0E0BC01CD010E94741181E06AE00E94E8
:102960004A1187E690E00E9417110E945914CC0189
:10297000A0E0B0E0BC01CD010E9474110E94591486
:102980008832910530F083E066E041E00E94EC0679
:1029900005C083E066E040E00E94EC068CEA90E02F
:1029A0000E94F70A80E061E00E944A118CE690E004
:1029B0000E9417118091AC008F3F09F4BDCF0E9497
:1029C00040118091AC00882309F0B6CF80E061E02F
:1029D0000E944A1184E790E00E94171181E060E0B4
:1029E0000E944A11DAC08CEA90E00E94F70A8091B6
:1029F000AC008F3FC1F08091AC00805D0E94090F58
:102A000080919C0090919D002091AC00FC01E955C3
:102A1000FF4F208380919C0090919D0001969093A0
:102A20009D0080939C0080919C0090919D0084303B
:102A3000910509F0B2C01F8618C08F85882F90E0DD
:102A4000FC01E957FF4F20818F85882F90E0FC0122
:102A5000E955FF4F8081281729F48091A2008F5FEC
:102A60008093A2008F858F5F8F878F85843028F3B6
:102A70008091A200843061F481E065E00E944A11F7
:102A800083E40E94090F8CEF98E00E94D61583C062
:102A900083E067E041E00E94EC0681E065E00E948F
:102AA0004A1185E40E94090F80E090E0AAEFB4E4A7
:102AB0008B879C87AD87BE876B857C858D859E8542
:102AC00020E030E04AEF54E40E941F02DC01CB0119
:102AD0008F839887A987BA876F81788589859A853A
:102AE00020E030E040E85FE30E94790388232CF483
:102AF00081E090E09E838D833FC06F8178858985DA
:102B00009A8520E03FEF4FE757E40E94190318161B
:102B10004CF56B857C858D859E8520E030E040E21C
:102B200051E40E941F02DC01CB01BC01CD010E94D7
:102B30004900DC01CB019E838D830FC088EC90E0BF
:102B40009C838B838B819C810197F1F79C838B8382
:102B50008D819E8101979E838D838D819E810097BB
:102B600069F714C06F81788589859A850E9449002C
:102B7000DC01CB019E838D838D819E819A83898325
:102B800089819A810197F1F79A83898383E067E0CD
:102B900040E00E94EC061092A20080919C0090916F
:102BA0009D008530910508F41ECFC6CEDF93CF93EC
:102BB00000D0CDB7DEB79A838983EAE4F0E089815B
:102BC0009A8191838083E8E4F0E089819A819183FE
:102BD00080830F900F90CF91DF910895DF93CF9373
:102BE000CDB7DEB7AFE4B0E0EFE4F0E0808182681B
:102BF0008C93AEE4B0E0EEE4F0E080818A618C93E7
:102C0000E6E4F0E08FE19EE491838083CF91DF9151
:102C10000895629FD001739FF001829FE00DF11D26
:102C2000649FE00DF11D929FF00D839FF00D749F46
:102C3000F00D659FF00D9927729FB00DE11DF91FF2
:102C4000639FB00DE11DF91FBD01CF01112408954F
:102C5000AA1BBB1B51E107C0AA1FBB1FA617B707C2
:102C600010F0A61BB70B881F991F5A95A9F78095DE
:102C70009095BC01CD010895A1E21A2EAA1BBB1BA1
:102C8000FD010DC0AA1FBB1FEE1FFF1FA217B30738
:102C9000E407F50720F0A21BB30BE40BF50B661F4E
:102CA000771F881F991F1A9469F760957095809512
:102CB00090959B01AC01BD01CF0108952F923F92E9
:102CC0004F925F926F927F928F929F92AF92BF923C
:102CD000CF92DF92EF92FF920F931F93CF93DF93E8
:102CE000CDB7DEB7CA1BDB0B0FB6F894DEBF0FBE45
:102CF000CDBF09942A88398848885F846E847D8492
:102D00008C849B84AA84B984C884DF80EE80FD8093
:102D10000C811B81AA81B981CE0FD11D0FB6F89409
:102D2000DEBF0FBECDBFED010895FA01CF93FF9333
:102D3000EF93223044F1253234F5C22FE894CA30A3
:102D400049F497FB3EF490958095709561957F4F7F
:102D50008F4F9F4F2C2F332744275527FF93EF93F7
:102D60000E943C16EF91FF91605D6A330CF0695D43
:102D70006193B901CA01605070408040904051F7A2
:102D800016F4CDE2C19310828F919F91CF910C9454
:102D9000C916DC01FC01672F71917723E1F73297A7
:102DA00004C07C916D9370836291AE17BF07C8F326
:062DB0000895F894FFCF26
:102DB6004C696768743D0054656D3D00456E7465E9
:102DC60072203000456E7465722050617373000086
:102DD6000000000000000007040704000704010AC1
:0C2DE600080502000906030B0105090D99
:00000001FF
